{
  "_format": "hh-sol-artifact-1",
  "contractName": "CatCoin",
  "sourceName": "contracts/CatCoin.sol",
  "abi": [
    {
      "inputs": [
        {
          "internalType": "address",
          "name": "initialOwner",
          "type": "address"
        },
        {
          "internalType": "uint256",
          "name": "_ethToCatRate",
          "type": "uint256"
        }
      ],
      "stateMutability": "nonpayable",
      "type": "constructor"
    },
    {
      "inputs": [
        {
          "internalType": "address",
          "name": "spender",
          "type": "address"
        },
        {
          "internalType": "uint256",
          "name": "allowance",
          "type": "uint256"
        },
        {
          "internalType": "uint256",
          "name": "needed",
          "type": "uint256"
        }
      ],
      "name": "ERC20InsufficientAllowance",
      "type": "error"
    },
    {
      "inputs": [
        {
          "internalType": "address",
          "name": "sender",
          "type": "address"
        },
        {
          "internalType": "uint256",
          "name": "balance",
          "type": "uint256"
        },
        {
          "internalType": "uint256",
          "name": "needed",
          "type": "uint256"
        }
      ],
      "name": "ERC20InsufficientBalance",
      "type": "error"
    },
    {
      "inputs": [
        {
          "internalType": "address",
          "name": "approver",
          "type": "address"
        }
      ],
      "name": "ERC20InvalidApprover",
      "type": "error"
    },
    {
      "inputs": [
        {
          "internalType": "address",
          "name": "receiver",
          "type": "address"
        }
      ],
      "name": "ERC20InvalidReceiver",
      "type": "error"
    },
    {
      "inputs": [
        {
          "internalType": "address",
          "name": "sender",
          "type": "address"
        }
      ],
      "name": "ERC20InvalidSender",
      "type": "error"
    },
    {
      "inputs": [
        {
          "internalType": "address",
          "name": "spender",
          "type": "address"
        }
      ],
      "name": "ERC20InvalidSpender",
      "type": "error"
    },
    {
      "inputs": [
        {
          "internalType": "address",
          "name": "owner",
          "type": "address"
        }
      ],
      "name": "OwnableInvalidOwner",
      "type": "error"
    },
    {
      "inputs": [
        {
          "internalType": "address",
          "name": "account",
          "type": "address"
        }
      ],
      "name": "OwnableUnauthorizedAccount",
      "type": "error"
    },
    {
      "inputs": [],
      "name": "ReentrancyGuardReentrantCall",
      "type": "error"
    },
    {
      "anonymous": false,
      "inputs": [
        {
          "indexed": true,
          "internalType": "address",
          "name": "owner",
          "type": "address"
        },
        {
          "indexed": true,
          "internalType": "address",
          "name": "spender",
          "type": "address"
        },
        {
          "indexed": false,
          "internalType": "uint256",
          "name": "value",
          "type": "uint256"
        }
      ],
      "name": "Approval",
      "type": "event"
    },
    {
      "anonymous": false,
      "inputs": [
        {
          "indexed": true,
          "internalType": "address",
          "name": "previousOwner",
          "type": "address"
        },
        {
          "indexed": true,
          "internalType": "address",
          "name": "newOwner",
          "type": "address"
        }
      ],
      "name": "OwnershipTransferred",
      "type": "event"
    },
    {
      "anonymous": false,
      "inputs": [
        {
          "indexed": true,
          "internalType": "address",
          "name": "purchaser",
          "type": "address"
        },
        {
          "indexed": false,
          "internalType": "uint256",
          "name": "amount",
          "type": "uint256"
        },
        {
          "indexed": false,
          "internalType": "uint256",
          "name": "rate",
          "type": "uint256"
        },
        {
          "indexed": false,
          "internalType": "string",
          "name": "currency",
          "type": "string"
        }
      ],
      "name": "TokensPurchased",
      "type": "event"
    },
    {
      "anonymous": false,
      "inputs": [
        {
          "indexed": true,
          "internalType": "address",
          "name": "from",
          "type": "address"
        },
        {
          "indexed": true,
          "internalType": "address",
          "name": "to",
          "type": "address"
        },
        {
          "indexed": false,
          "internalType": "uint256",
          "name": "value",
          "type": "uint256"
        }
      ],
      "name": "Transfer",
      "type": "event"
    },
    {
      "inputs": [
        {
          "internalType": "address",
          "name": "owner",
          "type": "address"
        },
        {
          "internalType": "address",
          "name": "spender",
          "type": "address"
        }
      ],
      "name": "allowance",
      "outputs": [
        {
          "internalType": "uint256",
          "name": "",
          "type": "uint256"
        }
      ],
      "stateMutability": "view",
      "type": "function"
    },
    {
      "inputs": [
        {
          "internalType": "address",
          "name": "spender",
          "type": "address"
        },
        {
          "internalType": "uint256",
          "name": "value",
          "type": "uint256"
        }
      ],
      "name": "approve",
      "outputs": [
        {
          "internalType": "bool",
          "name": "",
          "type": "bool"
        }
      ],
      "stateMutability": "nonpayable",
      "type": "function"
    },
    {
      "inputs": [
        {
          "internalType": "address",
          "name": "account",
          "type": "address"
        }
      ],
      "name": "balanceOf",
      "outputs": [
        {
          "internalType": "uint256",
          "name": "",
          "type": "uint256"
        }
      ],
      "stateMutability": "view",
      "type": "function"
    },
    {
      "inputs": [],
      "name": "buyCatCoinWithETH",
      "outputs": [],
      "stateMutability": "payable",
      "type": "function"
    },
    {
      "inputs": [],
      "name": "decimals",
      "outputs": [
        {
          "internalType": "uint8",
          "name": "",
          "type": "uint8"
        }
      ],
      "stateMutability": "view",
      "type": "function"
    },
    {
      "inputs": [
        {
          "internalType": "uint256",
          "name": "amount",
          "type": "uint256"
        }
      ],
      "name": "depositCatCoins",
      "outputs": [],
      "stateMutability": "nonpayable",
      "type": "function"
    },
    {
      "inputs": [],
      "name": "ethToCatRate",
      "outputs": [
        {
          "internalType": "uint256",
          "name": "",
          "type": "uint256"
        }
      ],
      "stateMutability": "view",
      "type": "function"
    },
    {
      "inputs": [],
      "name": "getEthToCatRate",
      "outputs": [
        {
          "internalType": "uint256",
          "name": "",
          "type": "uint256"
        }
      ],
      "stateMutability": "view",
      "type": "function"
    },
    {
      "inputs": [
        {
          "internalType": "address",
          "name": "to",
          "type": "address"
        },
        {
          "internalType": "uint256",
          "name": "amount",
          "type": "uint256"
        }
      ],
      "name": "mint",
      "outputs": [],
      "stateMutability": "nonpayable",
      "type": "function"
    },
    {
      "inputs": [],
      "name": "name",
      "outputs": [
        {
          "internalType": "string",
          "name": "",
          "type": "string"
        }
      ],
      "stateMutability": "view",
      "type": "function"
    },
    {
      "inputs": [],
      "name": "owner",
      "outputs": [
        {
          "internalType": "address",
          "name": "",
          "type": "address"
        }
      ],
      "stateMutability": "view",
      "type": "function"
    },
    {
      "inputs": [],
      "name": "renounceOwnership",
      "outputs": [],
      "stateMutability": "nonpayable",
      "type": "function"
    },
    {
      "inputs": [],
      "name": "symbol",
      "outputs": [
        {
          "internalType": "string",
          "name": "",
          "type": "string"
        }
      ],
      "stateMutability": "view",
      "type": "function"
    },
    {
      "inputs": [],
      "name": "totalSupply",
      "outputs": [
        {
          "internalType": "uint256",
          "name": "",
          "type": "uint256"
        }
      ],
      "stateMutability": "view",
      "type": "function"
    },
    {
      "inputs": [
        {
          "internalType": "address",
          "name": "to",
          "type": "address"
        },
        {
          "internalType": "uint256",
          "name": "value",
          "type": "uint256"
        }
      ],
      "name": "transfer",
      "outputs": [
        {
          "internalType": "bool",
          "name": "",
          "type": "bool"
        }
      ],
      "stateMutability": "nonpayable",
      "type": "function"
    },
    {
      "inputs": [
        {
          "internalType": "address",
          "name": "from",
          "type": "address"
        },
        {
          "internalType": "address",
          "name": "to",
          "type": "address"
        },
        {
          "internalType": "uint256",
          "name": "value",
          "type": "uint256"
        }
      ],
      "name": "transferFrom",
      "outputs": [
        {
          "internalType": "bool",
          "name": "",
          "type": "bool"
        }
      ],
      "stateMutability": "nonpayable",
      "type": "function"
    },
    {
      "inputs": [
        {
          "internalType": "address",
          "name": "newOwner",
          "type": "address"
        }
      ],
      "name": "transferOwnership",
      "outputs": [],
      "stateMutability": "nonpayable",
      "type": "function"
    },
    {
      "inputs": [
        {
          "internalType": "uint256",
          "name": "newRate",
          "type": "uint256"
        }
      ],
      "name": "updateEthToCatRate",
      "outputs": [],
      "stateMutability": "nonpayable",
      "type": "function"
    },
    {
      "inputs": [],
      "name": "withdrawEth",
      "outputs": [],
      "stateMutability": "nonpayable",
      "type": "function"
    }
  ],
  "bytecode": "0x60806040523480156200001157600080fd5b50604051620024d4380380620024d48339818101604052810190620000379190620005d7565b816040518060400160405280600381526020017f43617400000000000000000000000000000000000000000000000000000000008152506040518060400160405280600381526020017f43415400000000000000000000000000000000000000000000000000000000008152508160039081620000b591906200088e565b508060049081620000c791906200088e565b505050600073ffffffffffffffffffffffffffffffffffffffff168173ffffffffffffffffffffffffffffffffffffffff16036200013f5760006040517f1e4fbdf700000000000000000000000000000000000000000000000000000000815260040162000136919062000986565b60405180910390fd5b6200015081620001a660201b60201c565b50600160068190555062000197306200016e6200026c60201b60201c565b600a6200017c919062000b33565b6127106200018b919062000b84565b6200027560201b60201c565b80600781905550505062000c75565b6000600560009054906101000a900473ffffffffffffffffffffffffffffffffffffffff16905081600560006101000a81548173ffffffffffffffffffffffffffffffffffffffff021916908373ffffffffffffffffffffffffffffffffffffffff1602179055508173ffffffffffffffffffffffffffffffffffffffff168173ffffffffffffffffffffffffffffffffffffffff167f8be0079c531659141344cd1fd0a4f28419497f9722a3daafe3b4186f6b6457e060405160405180910390a35050565b60006012905090565b600073ffffffffffffffffffffffffffffffffffffffff168273ffffffffffffffffffffffffffffffffffffffff1603620002ea5760006040517fec442f05000000000000000000000000000000000000000000000000000000008152600401620002e1919062000986565b60405180910390fd5b620002fe600083836200030260201b60201c565b5050565b600073ffffffffffffffffffffffffffffffffffffffff168373ffffffffffffffffffffffffffffffffffffffff1603620003585780600260008282546200034b919062000bcf565b925050819055506200042e565b60008060008573ffffffffffffffffffffffffffffffffffffffff1673ffffffffffffffffffffffffffffffffffffffff16815260200190815260200160002054905081811015620003e7578381836040517fe450d38c000000000000000000000000000000000000000000000000000000008152600401620003de9392919062000c1b565b60405180910390fd5b8181036000808673ffffffffffffffffffffffffffffffffffffffff1673ffffffffffffffffffffffffffffffffffffffff16815260200190815260200160002081905550505b600073ffffffffffffffffffffffffffffffffffffffff168273ffffffffffffffffffffffffffffffffffffffff1603620004795780600260008282540392505081905550620004c6565b806000808473ffffffffffffffffffffffffffffffffffffffff1673ffffffffffffffffffffffffffffffffffffffff168152602001908152602001600020600082825401925050819055505b8173ffffffffffffffffffffffffffffffffffffffff168373ffffffffffffffffffffffffffffffffffffffff167fddf252ad1be2c89b69c2b068fc378daa952ba7f163c4a11628f55a4df523b3ef8360405162000525919062000c58565b60405180910390a3505050565b600080fd5b600073ffffffffffffffffffffffffffffffffffffffff82169050919050565b6000620005648262000537565b9050919050565b620005768162000557565b81146200058257600080fd5b50565b60008151905062000596816200056b565b92915050565b6000819050919050565b620005b1816200059c565b8114620005bd57600080fd5b50565b600081519050620005d181620005a6565b92915050565b60008060408385031215620005f157620005f062000532565b5b6000620006018582860162000585565b92505060206200061485828601620005c0565b9150509250929050565b600081519050919050565b7f4e487b7100000000000000000000000000000000000000000000000000000000600052604160045260246000fd5b7f4e487b7100000000000000000000000000000000000000000000000000000000600052602260045260246000fd5b60006002820490506001821680620006a057607f821691505b602082108103620006b657620006b562000658565b5b50919050565b60008190508160005260206000209050919050565b60006020601f8301049050919050565b600082821b905092915050565b600060088302620007207fffffffffffffffffffffffffffffffffffffffffffffffffffffffffffffffff82620006e1565b6200072c8683620006e1565b95508019841693508086168417925050509392505050565b6000819050919050565b60006200076f6200076962000763846200059c565b62000744565b6200059c565b9050919050565b6000819050919050565b6200078b836200074e565b620007a36200079a8262000776565b848454620006ee565b825550505050565b600090565b620007ba620007ab565b620007c781848462000780565b505050565b5b81811015620007ef57620007e3600082620007b0565b600181019050620007cd565b5050565b601f8211156200083e576200080881620006bc565b6200081384620006d1565b8101602085101562000823578190505b6200083b6200083285620006d1565b830182620007cc565b50505b505050565b600082821c905092915050565b6000620008636000198460080262000843565b1980831691505092915050565b60006200087e838362000850565b9150826002028217905092915050565b62000899826200061e565b67ffffffffffffffff811115620008b557620008b462000629565b5b620008c1825462000687565b620008ce828285620007f3565b600060209050601f831160018114620009065760008415620008f1578287015190505b620008fd858262000870565b8655506200096d565b601f1984166200091686620006bc565b60005b82811015620009405784890151825560018201915060208501945060208101905062000919565b868310156200096057848901516200095c601f89168262000850565b8355505b6001600288020188555050505b505050505050565b620009808162000557565b82525050565b60006020820190506200099d600083018462000975565b92915050565b7f4e487b7100000000000000000000000000000000000000000000000000000000600052601160045260246000fd5b60008160011c9050919050565b6000808291508390505b600185111562000a315780860481111562000a095762000a08620009a3565b5b600185161562000a195780820291505b808102905062000a2985620009d2565b9450620009e9565b94509492505050565b60008262000a4c576001905062000b1f565b8162000a5c576000905062000b1f565b816001811462000a75576002811462000a805762000ab6565b600191505062000b1f565b60ff84111562000a955762000a94620009a3565b5b8360020a91508482111562000aaf5762000aae620009a3565b5b5062000b1f565b5060208310610133831016604e8410600b841016171562000af05782820a90508381111562000aea5762000ae9620009a3565b5b62000b1f565b62000aff8484846001620009df565b9250905081840481111562000b195762000b18620009a3565b5b81810290505b9392505050565b600060ff82169050919050565b600062000b40826200059c565b915062000b4d8362000b26565b925062000b7c7fffffffffffffffffffffffffffffffffffffffffffffffffffffffffffffffff848462000a3a565b905092915050565b600062000b91826200059c565b915062000b9e836200059c565b925082820262000bae816200059c565b9150828204841483151762000bc85762000bc7620009a3565b5b5092915050565b600062000bdc826200059c565b915062000be9836200059c565b925082820190508082111562000c045762000c03620009a3565b5b92915050565b62000c15816200059c565b82525050565b600060608201905062000c32600083018662000975565b62000c41602083018562000c0a565b62000c50604083018462000c0a565b949350505050565b600060208201905062000c6f600083018462000c0a565b92915050565b61184f8062000c856000396000f3fe6080604052600436106101145760003560e01c806370a08231116100a0578063a0ef91df11610064578063a0ef91df14610370578063a9059cbb14610387578063dd62ed3e146103c4578063ebaa0bbc14610401578063f2fde38b1461042a57610114565b806370a08231146102bc578063715018a6146102f95780638da5cb5b1461031057806395d89b411461033b5780639a87069e1461036657610114565b806318160ddd116100e757806318160ddd146101d55780631aa6e2ca1461020057806323b872dd1461022b578063313ce5671461026857806340c10f191461029357610114565b806306fdde0314610119578063095ea7b3146101445780630b452013146101815780630f61643c146101ac575b600080fd5b34801561012557600080fd5b5061012e610453565b60405161013b91906111fc565b60405180910390f35b34801561015057600080fd5b5061016b600480360381019061016691906112b7565b6104e5565b6040516101789190611312565b60405180910390f35b34801561018d57600080fd5b50610196610508565b6040516101a3919061133c565b60405180910390f35b3480156101b857600080fd5b506101d360048036038101906101ce9190611357565b610512565b005b3480156101e157600080fd5b506101ea610573565b6040516101f7919061133c565b60405180910390f35b34801561020c57600080fd5b5061021561057d565b604051610222919061133c565b60405180910390f35b34801561023757600080fd5b50610252600480360381019061024d9190611384565b610583565b60405161025f9190611312565b60405180910390f35b34801561027457600080fd5b5061027d6105b2565b60405161028a91906113f3565b60405180910390f35b34801561029f57600080fd5b506102ba60048036038101906102b591906112b7565b6105bb565b005b3480156102c857600080fd5b506102e360048036038101906102de919061140e565b6105d1565b6040516102f0919061133c565b60405180910390f35b34801561030557600080fd5b5061030e610619565b005b34801561031c57600080fd5b5061032561062d565b604051610332919061144a565b60405180910390f35b34801561034757600080fd5b50610350610657565b60405161035d91906111fc565b60405180910390f35b61036e6106e9565b005b34801561037c57600080fd5b506103856107b6565b005b34801561039357600080fd5b506103ae60048036038101906103a991906112b7565b61086d565b6040516103bb9190611312565b60405180910390f35b3480156103d057600080fd5b506103eb60048036038101906103e69190611465565b610890565b6040516103f8919061133c565b60405180910390f35b34801561040d57600080fd5b5061042860048036038101906104239190611357565b610917565b005b34801561043657600080fd5b50610451600480360381019061044c919061140e565b610929565b005b606060038054610462906114d4565b80601f016020809104026020016040519081016040528092919081815260200182805461048e906114d4565b80156104db5780601f106104b0576101008083540402835291602001916104db565b820191906000526020600020905b8154815290600101906020018083116104be57829003601f168201915b5050505050905090565b6000806104f06109af565b90506104fd8185856109b7565b600191505092915050565b6000600754905090565b61051a6109c9565b80610524336105d1565b1015610565576040517f08c379a000000000000000000000000000000000000000000000000000000000815260040161055c90611551565b60405180910390fd5b610570333083610a50565b50565b6000600254905090565b60075481565b60008061058e6109af565b905061059b858285610b44565b6105a6858585610a50565b60019150509392505050565b60006012905090565b6105c36109c9565b6105cd8282610bd8565b5050565b60008060008373ffffffffffffffffffffffffffffffffffffffff1673ffffffffffffffffffffffffffffffffffffffff168152602001908152602001600020549050919050565b6106216109c9565b61062b6000610c5a565b565b6000600560009054906101000a900473ffffffffffffffffffffffffffffffffffffffff16905090565b606060048054610666906114d4565b80601f0160208091040260200160405190810160405280929190818152602001828054610692906114d4565b80156106df5780601f106106b4576101008083540402835291602001916106df565b820191906000526020600020905b8154815290600101906020018083116106c257829003601f168201915b5050505050905090565b6106f1610d20565b60006007543461070191906115a0565b90508061070d306105d1565b101561074e576040517f08c379a000000000000000000000000000000000000000000000000000000000815260040161074590611654565b60405180910390fd5b610759303383610a50565b3373ffffffffffffffffffffffffffffffffffffffff167fe8e3aa9086f33aa1d89447fc3a792fafabd987374e660b040e31787d68b5fe06826007546040516107a39291906116c0565b60405180910390a2506107b4610d66565b565b6107be6109c9565b60003373ffffffffffffffffffffffffffffffffffffffff16476040516107e49061172d565b60006040518083038185875af1925050503d8060008114610821576040519150601f19603f3d011682016040523d82523d6000602084013e610826565b606091505b505090508061086a576040517f08c379a00000000000000000000000000000000000000000000000000000000081526004016108619061178e565b60405180910390fd5b50565b6000806108786109af565b9050610885818585610a50565b600191505092915050565b6000600160008473ffffffffffffffffffffffffffffffffffffffff1673ffffffffffffffffffffffffffffffffffffffff16815260200190815260200160002060008373ffffffffffffffffffffffffffffffffffffffff1673ffffffffffffffffffffffffffffffffffffffff16815260200190815260200160002054905092915050565b61091f6109c9565b8060078190555050565b6109316109c9565b600073ffffffffffffffffffffffffffffffffffffffff168173ffffffffffffffffffffffffffffffffffffffff16036109a35760006040517f1e4fbdf700000000000000000000000000000000000000000000000000000000815260040161099a919061144a565b60405180910390fd5b6109ac81610c5a565b50565b600033905090565b6109c48383836001610d70565b505050565b6109d16109af565b73ffffffffffffffffffffffffffffffffffffffff166109ef61062d565b73ffffffffffffffffffffffffffffffffffffffff1614610a4e57610a126109af565b6040517f118cdaa7000000000000000000000000000000000000000000000000000000008152600401610a45919061144a565b60405180910390fd5b565b600073ffffffffffffffffffffffffffffffffffffffff168373ffffffffffffffffffffffffffffffffffffffff1603610ac25760006040517f96c6fd1e000000000000000000000000000000000000000000000000000000008152600401610ab9919061144a565b60405180910390fd5b600073ffffffffffffffffffffffffffffffffffffffff168273ffffffffffffffffffffffffffffffffffffffff1603610b345760006040517fec442f05000000000000000000000000000000000000000000000000000000008152600401610b2b919061144a565b60405180910390fd5b610b3f838383610f47565b505050565b6000610b508484610890565b90507fffffffffffffffffffffffffffffffffffffffffffffffffffffffffffffffff8114610bd25781811015610bc2578281836040517ffb8f41b2000000000000000000000000000000000000000000000000000000008152600401610bb9939291906117ae565b60405180910390fd5b610bd184848484036000610d70565b5b50505050565b600073ffffffffffffffffffffffffffffffffffffffff168273ffffffffffffffffffffffffffffffffffffffff1603610c4a5760006040517fec442f05000000000000000000000000000000000000000000000000000000008152600401610c41919061144a565b60405180910390fd5b610c5660008383610f47565b5050565b6000600560009054906101000a900473ffffffffffffffffffffffffffffffffffffffff16905081600560006101000a81548173ffffffffffffffffffffffffffffffffffffffff021916908373ffffffffffffffffffffffffffffffffffffffff1602179055508173ffffffffffffffffffffffffffffffffffffffff168173ffffffffffffffffffffffffffffffffffffffff167f8be0079c531659141344cd1fd0a4f28419497f9722a3daafe3b4186f6b6457e060405160405180910390a35050565b600260065403610d5c576040517f3ee5aeb500000000000000000000000000000000000000000000000000000000815260040160405180910390fd5b6002600681905550565b6001600681905550565b600073ffffffffffffffffffffffffffffffffffffffff168473ffffffffffffffffffffffffffffffffffffffff1603610de25760006040517fe602df05000000000000000000000000000000000000000000000000000000008152600401610dd9919061144a565b60405180910390fd5b600073ffffffffffffffffffffffffffffffffffffffff168373ffffffffffffffffffffffffffffffffffffffff1603610e545760006040517f94280d62000000000000000000000000000000000000000000000000000000008152600401610e4b919061144a565b60405180910390fd5b81600160008673ffffffffffffffffffffffffffffffffffffffff1673ffffffffffffffffffffffffffffffffffffffff16815260200190815260200160002060008573ffffffffffffffffffffffffffffffffffffffff1673ffffffffffffffffffffffffffffffffffffffff168152602001908152602001600020819055508015610f41578273ffffffffffffffffffffffffffffffffffffffff168473ffffffffffffffffffffffffffffffffffffffff167f8c5be1e5ebec7d5bd14f71427d1e84f3dd0314c0f7b2291e5b200ac8c7c3b92584604051610f38919061133c565b60405180910390a35b50505050565b600073ffffffffffffffffffffffffffffffffffffffff168373ffffffffffffffffffffffffffffffffffffffff1603610f99578060026000828254610f8d91906117e5565b9250508190555061106c565b60008060008573ffffffffffffffffffffffffffffffffffffffff1673ffffffffffffffffffffffffffffffffffffffff16815260200190815260200160002054905081811015611025578381836040517fe450d38c00000000000000000000000000000000000000000000000000000000815260040161101c939291906117ae565b60405180910390fd5b8181036000808673ffffffffffffffffffffffffffffffffffffffff1673ffffffffffffffffffffffffffffffffffffffff16815260200190815260200160002081905550505b600073ffffffffffffffffffffffffffffffffffffffff168273ffffffffffffffffffffffffffffffffffffffff16036110b55780600260008282540392505081905550611102565b806000808473ffffffffffffffffffffffffffffffffffffffff1673ffffffffffffffffffffffffffffffffffffffff168152602001908152602001600020600082825401925050819055505b8173ffffffffffffffffffffffffffffffffffffffff168373ffffffffffffffffffffffffffffffffffffffff167fddf252ad1be2c89b69c2b068fc378daa952ba7f163c4a11628f55a4df523b3ef8360405161115f919061133c565b60405180910390a3505050565b600081519050919050565b600082825260208201905092915050565b60005b838110156111a657808201518184015260208101905061118b565b60008484015250505050565b6000601f19601f8301169050919050565b60006111ce8261116c565b6111d88185611177565b93506111e8818560208601611188565b6111f1816111b2565b840191505092915050565b6000602082019050818103600083015261121681846111c3565b905092915050565b600080fd5b600073ffffffffffffffffffffffffffffffffffffffff82169050919050565b600061124e82611223565b9050919050565b61125e81611243565b811461126957600080fd5b50565b60008135905061127b81611255565b92915050565b6000819050919050565b61129481611281565b811461129f57600080fd5b50565b6000813590506112b18161128b565b92915050565b600080604083850312156112ce576112cd61121e565b5b60006112dc8582860161126c565b92505060206112ed858286016112a2565b9150509250929050565b60008115159050919050565b61130c816112f7565b82525050565b60006020820190506113276000830184611303565b92915050565b61133681611281565b82525050565b6000602082019050611351600083018461132d565b92915050565b60006020828403121561136d5761136c61121e565b5b600061137b848285016112a2565b91505092915050565b60008060006060848603121561139d5761139c61121e565b5b60006113ab8682870161126c565b93505060206113bc8682870161126c565b92505060406113cd868287016112a2565b9150509250925092565b600060ff82169050919050565b6113ed816113d7565b82525050565b600060208201905061140860008301846113e4565b92915050565b6000602082840312156114245761142361121e565b5b60006114328482850161126c565b91505092915050565b61144481611243565b82525050565b600060208201905061145f600083018461143b565b92915050565b6000806040838503121561147c5761147b61121e565b5b600061148a8582860161126c565b925050602061149b8582860161126c565b9150509250929050565b7f4e487b7100000000000000000000000000000000000000000000000000000000600052602260045260246000fd5b600060028204905060018216806114ec57607f821691505b6020821081036114ff576114fe6114a5565b5b50919050565b7f496e73756666696369656e7420436174436f696e7320746f206465706f736974600082015250565b600061153b602083611177565b915061154682611505565b602082019050919050565b6000602082019050818103600083015261156a8161152e565b9050919050565b7f4e487b7100000000000000000000000000000000000000000000000000000000600052601160045260246000fd5b60006115ab82611281565b91506115b683611281565b92508282026115c481611281565b915082820484148315176115db576115da611571565b5b5092915050565b7f4e6f7420656e6f75676820436174436f696e7320696e2074686520726573657260008201527f7665000000000000000000000000000000000000000000000000000000000000602082015250565b600061163e602283611177565b9150611649826115e2565b604082019050919050565b6000602082019050818103600083015261166d81611631565b9050919050565b7f4554480000000000000000000000000000000000000000000000000000000000600082015250565b60006116aa600383611177565b91506116b582611674565b602082019050919050565b60006060820190506116d5600083018561132d565b6116e2602083018461132d565b81810360408301526116f38161169d565b90509392505050565b600081905092915050565b50565b60006117176000836116fc565b915061172282611707565b600082019050919050565b60006117388261170a565b9150819050919050565b7f43616c6c206661696c6564210000000000000000000000000000000000000000600082015250565b6000611778600c83611177565b915061178382611742565b602082019050919050565b600060208201905081810360008301526117a78161176b565b9050919050565b60006060820190506117c3600083018661143b565b6117d0602083018561132d565b6117dd604083018461132d565b949350505050565b60006117f082611281565b91506117fb83611281565b925082820190508082111561181357611812611571565b5b9291505056fea2646970667358221220c875484d27c99e561507d2747450a9d29bd967b632a78e871da8f3048dadf90364736f6c63430008180033",
  "linkReferences": {},
  "deployedLinkReferences": {}
}