{
  "_format": "hh-sol-artifact-1",
  "contractName": "MyNFT",
  "sourceName": "contracts/MyNFT.sol",
  "abi": [
    {
      "inputs": [
        {
          "internalType": "address",
          "name": "initialOwner",
          "type": "address"
        }
      ],
      "stateMutability": "nonpayable",
      "type": "constructor"
    },
    {
      "inputs": [
        {
          "internalType": "address",
          "name": "sender",
          "type": "address"
        },
        {
          "internalType": "uint256",
          "name": "tokenId",
          "type": "uint256"
        },
        {
          "internalType": "address",
          "name": "owner",
          "type": "address"
        }
      ],
      "name": "ERC721IncorrectOwner",
      "type": "error"
    },
    {
      "inputs": [
        {
          "internalType": "address",
          "name": "operator",
          "type": "address"
        },
        {
          "internalType": "uint256",
          "name": "tokenId",
          "type": "uint256"
        }
      ],
      "name": "ERC721InsufficientApproval",
      "type": "error"
    },
    {
      "inputs": [
        {
          "internalType": "address",
          "name": "approver",
          "type": "address"
        }
      ],
      "name": "ERC721InvalidApprover",
      "type": "error"
    },
    {
      "inputs": [
        {
          "internalType": "address",
          "name": "operator",
          "type": "address"
        }
      ],
      "name": "ERC721InvalidOperator",
      "type": "error"
    },
    {
      "inputs": [
        {
          "internalType": "address",
          "name": "owner",
          "type": "address"
        }
      ],
      "name": "ERC721InvalidOwner",
      "type": "error"
    },
    {
      "inputs": [
        {
          "internalType": "address",
          "name": "receiver",
          "type": "address"
        }
      ],
      "name": "ERC721InvalidReceiver",
      "type": "error"
    },
    {
      "inputs": [
        {
          "internalType": "address",
          "name": "sender",
          "type": "address"
        }
      ],
      "name": "ERC721InvalidSender",
      "type": "error"
    },
    {
      "inputs": [
        {
          "internalType": "uint256",
          "name": "tokenId",
          "type": "uint256"
        }
      ],
      "name": "ERC721NonexistentToken",
      "type": "error"
    },
    {
      "inputs": [
        {
          "internalType": "address",
          "name": "owner",
          "type": "address"
        }
      ],
      "name": "OwnableInvalidOwner",
      "type": "error"
    },
    {
      "inputs": [
        {
          "internalType": "address",
          "name": "account",
          "type": "address"
        }
      ],
      "name": "OwnableUnauthorizedAccount",
      "type": "error"
    },
    {
      "anonymous": false,
      "inputs": [
        {
          "indexed": true,
          "internalType": "address",
          "name": "owner",
          "type": "address"
        },
        {
          "indexed": true,
          "internalType": "address",
          "name": "approved",
          "type": "address"
        },
        {
          "indexed": true,
          "internalType": "uint256",
          "name": "tokenId",
          "type": "uint256"
        }
      ],
      "name": "Approval",
      "type": "event"
    },
    {
      "anonymous": false,
      "inputs": [
        {
          "indexed": true,
          "internalType": "address",
          "name": "owner",
          "type": "address"
        },
        {
          "indexed": true,
          "internalType": "address",
          "name": "operator",
          "type": "address"
        },
        {
          "indexed": false,
          "internalType": "bool",
          "name": "approved",
          "type": "bool"
        }
      ],
      "name": "ApprovalForAll",
      "type": "event"
    },
    {
      "anonymous": false,
      "inputs": [
        {
          "indexed": false,
          "internalType": "uint256",
          "name": "_fromTokenId",
          "type": "uint256"
        },
        {
          "indexed": false,
          "internalType": "uint256",
          "name": "_toTokenId",
          "type": "uint256"
        }
      ],
      "name": "BatchMetadataUpdate",
      "type": "event"
    },
    {
      "anonymous": false,
      "inputs": [
        {
          "indexed": false,
          "internalType": "uint256",
          "name": "_tokenId",
          "type": "uint256"
        }
      ],
      "name": "MetadataUpdate",
      "type": "event"
    },
    {
      "anonymous": false,
      "inputs": [
        {
          "indexed": true,
          "internalType": "address",
          "name": "previousOwner",
          "type": "address"
        },
        {
          "indexed": true,
          "internalType": "address",
          "name": "newOwner",
          "type": "address"
        }
      ],
      "name": "OwnershipTransferred",
      "type": "event"
    },
    {
      "anonymous": false,
      "inputs": [
        {
          "indexed": true,
          "internalType": "address",
          "name": "from",
          "type": "address"
        },
        {
          "indexed": true,
          "internalType": "address",
          "name": "to",
          "type": "address"
        },
        {
          "indexed": true,
          "internalType": "uint256",
          "name": "tokenId",
          "type": "uint256"
        }
      ],
      "name": "Transfer",
      "type": "event"
    },
    {
      "inputs": [
        {
          "internalType": "address",
          "name": "to",
          "type": "address"
        },
        {
          "internalType": "uint256",
          "name": "tokenId",
          "type": "uint256"
        }
      ],
      "name": "approve",
      "outputs": [],
      "stateMutability": "nonpayable",
      "type": "function"
    },
    {
      "inputs": [
        {
          "internalType": "address",
          "name": "owner",
          "type": "address"
        }
      ],
      "name": "balanceOf",
      "outputs": [
        {
          "internalType": "uint256",
          "name": "",
          "type": "uint256"
        }
      ],
      "stateMutability": "view",
      "type": "function"
    },
    {
      "inputs": [],
      "name": "count",
      "outputs": [
        {
          "internalType": "uint256",
          "name": "",
          "type": "uint256"
        }
      ],
      "stateMutability": "view",
      "type": "function"
    },
    {
      "inputs": [
        {
          "internalType": "uint256",
          "name": "tokenId",
          "type": "uint256"
        }
      ],
      "name": "getApproved",
      "outputs": [
        {
          "internalType": "address",
          "name": "",
          "type": "address"
        }
      ],
      "stateMutability": "view",
      "type": "function"
    },
    {
      "inputs": [
        {
          "internalType": "address",
          "name": "owner",
          "type": "address"
        },
        {
          "internalType": "address",
          "name": "operator",
          "type": "address"
        }
      ],
      "name": "isApprovedForAll",
      "outputs": [
        {
          "internalType": "bool",
          "name": "",
          "type": "bool"
        }
      ],
      "stateMutability": "view",
      "type": "function"
    },
    {
      "inputs": [
        {
          "internalType": "string",
          "name": "uri",
          "type": "string"
        }
      ],
      "name": "isContentOwned",
      "outputs": [
        {
          "internalType": "bool",
          "name": "",
          "type": "bool"
        }
      ],
      "stateMutability": "view",
      "type": "function"
    },
    {
      "inputs": [],
      "name": "name",
      "outputs": [
        {
          "internalType": "string",
          "name": "",
          "type": "string"
        }
      ],
      "stateMutability": "view",
      "type": "function"
    },
    {
      "inputs": [],
      "name": "owner",
      "outputs": [
        {
          "internalType": "address",
          "name": "",
          "type": "address"
        }
      ],
      "stateMutability": "view",
      "type": "function"
    },
    {
      "inputs": [
        {
          "internalType": "uint256",
          "name": "tokenId",
          "type": "uint256"
        }
      ],
      "name": "ownerOf",
      "outputs": [
        {
          "internalType": "address",
          "name": "",
          "type": "address"
        }
      ],
      "stateMutability": "view",
      "type": "function"
    },
    {
      "inputs": [
        {
          "internalType": "address",
          "name": "recipient",
          "type": "address"
        },
        {
          "internalType": "string",
          "name": "metadataURI",
          "type": "string"
        }
      ],
      "name": "payToMint",
      "outputs": [
        {
          "internalType": "uint256",
          "name": "",
          "type": "uint256"
        }
      ],
      "stateMutability": "payable",
      "type": "function"
    },
    {
      "inputs": [],
      "name": "renounceOwnership",
      "outputs": [],
      "stateMutability": "nonpayable",
      "type": "function"
    },
    {
      "inputs": [
        {
          "internalType": "address",
          "name": "to",
          "type": "address"
        },
        {
          "internalType": "string",
          "name": "uri",
          "type": "string"
        }
      ],
      "name": "safeMint",
      "outputs": [],
      "stateMutability": "nonpayable",
      "type": "function"
    },
    {
      "inputs": [
        {
          "internalType": "address",
          "name": "from",
          "type": "address"
        },
        {
          "internalType": "address",
          "name": "to",
          "type": "address"
        },
        {
          "internalType": "uint256",
          "name": "tokenId",
          "type": "uint256"
        }
      ],
      "name": "safeTransferFrom",
      "outputs": [],
      "stateMutability": "nonpayable",
      "type": "function"
    },
    {
      "inputs": [
        {
          "internalType": "address",
          "name": "from",
          "type": "address"
        },
        {
          "internalType": "address",
          "name": "to",
          "type": "address"
        },
        {
          "internalType": "uint256",
          "name": "tokenId",
          "type": "uint256"
        },
        {
          "internalType": "bytes",
          "name": "data",
          "type": "bytes"
        }
      ],
      "name": "safeTransferFrom",
      "outputs": [],
      "stateMutability": "nonpayable",
      "type": "function"
    },
    {
      "inputs": [
        {
          "internalType": "address",
          "name": "operator",
          "type": "address"
        },
        {
          "internalType": "bool",
          "name": "approved",
          "type": "bool"
        }
      ],
      "name": "setApprovalForAll",
      "outputs": [],
      "stateMutability": "nonpayable",
      "type": "function"
    },
    {
      "inputs": [
        {
          "internalType": "bytes4",
          "name": "interfaceId",
          "type": "bytes4"
        }
      ],
      "name": "supportsInterface",
      "outputs": [
        {
          "internalType": "bool",
          "name": "",
          "type": "bool"
        }
      ],
      "stateMutability": "view",
      "type": "function"
    },
    {
      "inputs": [],
      "name": "symbol",
      "outputs": [
        {
          "internalType": "string",
          "name": "",
          "type": "string"
        }
      ],
      "stateMutability": "view",
      "type": "function"
    },
    {
      "inputs": [
        {
          "internalType": "uint256",
          "name": "tokenId",
          "type": "uint256"
        }
      ],
      "name": "tokenURI",
      "outputs": [
        {
          "internalType": "string",
          "name": "",
          "type": "string"
        }
      ],
      "stateMutability": "view",
      "type": "function"
    },
    {
      "inputs": [
        {
          "internalType": "address",
          "name": "from",
          "type": "address"
        },
        {
          "internalType": "address",
          "name": "to",
          "type": "address"
        },
        {
          "internalType": "uint256",
          "name": "tokenId",
          "type": "uint256"
        }
      ],
      "name": "transferFrom",
      "outputs": [],
      "stateMutability": "nonpayable",
      "type": "function"
    },
    {
      "inputs": [
        {
          "internalType": "address",
          "name": "newOwner",
          "type": "address"
        }
      ],
      "name": "transferOwnership",
      "outputs": [],
      "stateMutability": "nonpayable",
      "type": "function"
    }
  ],
  "bytecode": "0x60806040523480156200001157600080fd5b506040516200316938038062003169833981810160405281019062000037919062000288565b806040518060400160405280600481526020017f53746172000000000000000000000000000000000000000000000000000000008152506040518060400160405280600381526020017f53545200000000000000000000000000000000000000000000000000000000008152508160009081620000b5919062000534565b508060019081620000c7919062000534565b505050600073ffffffffffffffffffffffffffffffffffffffff168173ffffffffffffffffffffffffffffffffffffffff16036200013f5760006040517f1e4fbdf70000000000000000000000000000000000000000000000000000000081526004016200013691906200062c565b60405180910390fd5b62000150816200015860201b60201c565b505062000649565b6000600760009054906101000a900473ffffffffffffffffffffffffffffffffffffffff16905081600760006101000a81548173ffffffffffffffffffffffffffffffffffffffff021916908373ffffffffffffffffffffffffffffffffffffffff1602179055508173ffffffffffffffffffffffffffffffffffffffff168173ffffffffffffffffffffffffffffffffffffffff167f8be0079c531659141344cd1fd0a4f28419497f9722a3daafe3b4186f6b6457e060405160405180910390a35050565b600080fd5b600073ffffffffffffffffffffffffffffffffffffffff82169050919050565b6000620002508262000223565b9050919050565b620002628162000243565b81146200026e57600080fd5b50565b600081519050620002828162000257565b92915050565b600060208284031215620002a157620002a06200021e565b5b6000620002b18482850162000271565b91505092915050565b600081519050919050565b7f4e487b7100000000000000000000000000000000000000000000000000000000600052604160045260246000fd5b7f4e487b7100000000000000000000000000000000000000000000000000000000600052602260045260246000fd5b600060028204905060018216806200033c57607f821691505b602082108103620003525762000351620002f4565b5b50919050565b60008190508160005260206000209050919050565b60006020601f8301049050919050565b600082821b905092915050565b600060088302620003bc7fffffffffffffffffffffffffffffffffffffffffffffffffffffffffffffffff826200037d565b620003c886836200037d565b95508019841693508086168417925050509392505050565b6000819050919050565b6000819050919050565b6000620004156200040f6200040984620003e0565b620003ea565b620003e0565b9050919050565b6000819050919050565b6200043183620003f4565b6200044962000440826200041c565b8484546200038a565b825550505050565b600090565b6200046062000451565b6200046d81848462000426565b505050565b5b8181101562000495576200048960008262000456565b60018101905062000473565b5050565b601f821115620004e457620004ae8162000358565b620004b9846200036d565b81016020851015620004c9578190505b620004e1620004d8856200036d565b83018262000472565b50505b505050565b600082821c905092915050565b60006200050960001984600802620004e9565b1980831691505092915050565b6000620005248383620004f6565b9150826002028217905092915050565b6200053f82620002ba565b67ffffffffffffffff8111156200055b576200055a620002c5565b5b62000567825462000323565b6200057482828562000499565b600060209050601f831160018114620005ac576000841562000597578287015190505b620005a3858262000516565b86555062000613565b601f198416620005bc8662000358565b60005b82811015620005e657848901518255600182019150602085019450602081019050620005bf565b8683101562000606578489015162000602601f891682620004f6565b8355505b6001600288020188555050505b505050505050565b620006268162000243565b82525050565b60006020820190506200064360008301846200061b565b92915050565b612b1080620006596000396000f3fe60806040526004361061011f5760003560e01c8063715018a6116100a0578063b88d4fde11610064578063b88d4fde146103ec578063c87b56dd14610415578063d204c45e14610452578063e985e9c51461047b578063f2fde38b146104b85761011f565b8063715018a6146103195780638da5cb5b1461033057806395d89b411461035b5780639f1cabc614610386578063a22cb465146103c35761011f565b806323b872dd116100e757806323b872dd1461021d57806342842e0e14610246578063615fd9e21461026f5780636352211e1461029f57806370a08231146102dc5761011f565b806301ffc9a71461012457806306661abd1461016157806306fdde031461018c578063081812fc146101b7578063095ea7b3146101f4575b600080fd5b34801561013057600080fd5b5061014b60048036038101906101469190611e30565b6104e1565b6040516101589190611e78565b60405180910390f35b34801561016d57600080fd5b506101766104f3565b6040516101839190611eac565b60405180910390f35b34801561019857600080fd5b506101a16104fd565b6040516101ae9190611f57565b60405180910390f35b3480156101c357600080fd5b506101de60048036038101906101d99190611fa5565b61058f565b6040516101eb9190612013565b60405180910390f35b34801561020057600080fd5b5061021b6004803603810190610216919061205a565b6105ab565b005b34801561022957600080fd5b50610244600480360381019061023f919061209a565b6105c1565b005b34801561025257600080fd5b5061026d6004803603810190610268919061209a565b6106c3565b005b61028960048036038101906102849190612222565b6106e3565b6040516102969190611eac565b60405180910390f35b3480156102ab57600080fd5b506102c660048036038101906102c19190611fa5565b610811565b6040516102d39190612013565b60405180910390f35b3480156102e857600080fd5b5061030360048036038101906102fe919061227e565b610823565b6040516103109190611eac565b60405180910390f35b34801561032557600080fd5b5061032e6108dd565b005b34801561033c57600080fd5b506103456108f1565b6040516103529190612013565b60405180910390f35b34801561036757600080fd5b5061037061091b565b60405161037d9190611f57565b60405180910390f35b34801561039257600080fd5b506103ad60048036038101906103a891906122ab565b6109ad565b6040516103ba9190611e78565b60405180910390f35b3480156103cf57600080fd5b506103ea60048036038101906103e59190612320565b6109e8565b005b3480156103f857600080fd5b50610413600480360381019061040e9190612401565b6109fe565b005b34801561042157600080fd5b5061043c60048036038101906104379190611fa5565b610a1b565b6040516104499190611f57565b60405180910390f35b34801561045e57600080fd5b5061047960048036038101906104749190612222565b610a2d565b005b34801561048757600080fd5b506104a2600480360381019061049d9190612484565b610aa1565b6040516104af9190611e78565b60405180910390f35b3480156104c457600080fd5b506104df60048036038101906104da919061227e565b610b35565b005b60006104ec82610bbb565b9050919050565b6000600854905090565b60606000805461050c906124f3565b80601f0160208091040260200160405190810160405280929190818152602001828054610538906124f3565b80156105855780601f1061055a57610100808354040283529160200191610585565b820191906000526020600020905b81548152906001019060200180831161056857829003601f168201915b5050505050905090565b600061059a82610c1c565b506105a482610ca4565b9050919050565b6105bd82826105b8610ce1565b610ce9565b5050565b600073ffffffffffffffffffffffffffffffffffffffff168273ffffffffffffffffffffffffffffffffffffffff16036106335760006040517f64a0ae9200000000000000000000000000000000000000000000000000000000815260040161062a9190612013565b60405180910390fd5b60006106478383610642610ce1565b610cfb565b90508373ffffffffffffffffffffffffffffffffffffffff168173ffffffffffffffffffffffffffffffffffffffff16146106bd578382826040517f64283d7b0000000000000000000000000000000000000000000000000000000081526004016106b493929190612524565b60405180910390fd5b50505050565b6106de838383604051806020016040528060008152506109fe565b505050565b600060016009836040516106f79190612597565b908152602001604051809103902060009054906101000a900460ff1660ff1603610756576040517f08c379a000000000000000000000000000000000000000000000000000000000815260040161074d906125fa565b60405180910390fd5b66b1a2bc2ec500003410156107a0576040517f08c379a000000000000000000000000000000000000000000000000000000000815260040161079790612666565b60405180910390fd5b6000600860008154809291906107b5906126b5565b91905055905060016009846040516107cd9190612597565b908152602001604051809103902060006101000a81548160ff021916908360ff1602179055506107fd8482610f15565b6108078184610f33565b8091505092915050565b600061081c82610c1c565b9050919050565b60008073ffffffffffffffffffffffffffffffffffffffff168273ffffffffffffffffffffffffffffffffffffffff16036108965760006040517f89c62b6400000000000000000000000000000000000000000000000000000000815260040161088d9190612013565b60405180910390fd5b600360008373ffffffffffffffffffffffffffffffffffffffff1673ffffffffffffffffffffffffffffffffffffffff168152602001908152602001600020549050919050565b6108e5610f8f565b6108ef6000611016565b565b6000600760009054906101000a900473ffffffffffffffffffffffffffffffffffffffff16905090565b60606001805461092a906124f3565b80601f0160208091040260200160405190810160405280929190818152602001828054610956906124f3565b80156109a35780601f10610978576101008083540402835291602001916109a3565b820191906000526020600020905b81548152906001019060200180831161098657829003601f168201915b5050505050905090565b600060016009836040516109c19190612597565b908152602001604051809103902060009054906101000a900460ff1660ff16149050919050565b6109fa6109f3610ce1565b83836110dc565b5050565b610a098484846105c1565b610a158484848461124b565b50505050565b6060610a2682611402565b9050919050565b610a35610f8f565b600060086000815480929190610a4a906126b5565b919050559050610a5a8382610f15565b610a648183610f33565b6001600983604051610a769190612597565b908152602001604051809103902060006101000a81548160ff021916908360ff160217905550505050565b6000600560008473ffffffffffffffffffffffffffffffffffffffff1673ffffffffffffffffffffffffffffffffffffffff16815260200190815260200160002060008373ffffffffffffffffffffffffffffffffffffffff1673ffffffffffffffffffffffffffffffffffffffff16815260200190815260200160002060009054906101000a900460ff16905092915050565b610b3d610f8f565b600073ffffffffffffffffffffffffffffffffffffffff168173ffffffffffffffffffffffffffffffffffffffff1603610baf5760006040517f1e4fbdf7000000000000000000000000000000000000000000000000000000008152600401610ba69190612013565b60405180910390fd5b610bb881611016565b50565b6000634906490660e01b7bffffffffffffffffffffffffffffffffffffffffffffffffffffffff1916827bffffffffffffffffffffffffffffffffffffffffffffffffffffffff19161480610c155750610c1482611515565b5b9050919050565b600080610c28836115f7565b9050600073ffffffffffffffffffffffffffffffffffffffff168173ffffffffffffffffffffffffffffffffffffffff1603610c9b57826040517f7e273289000000000000000000000000000000000000000000000000000000008152600401610c929190611eac565b60405180910390fd5b80915050919050565b60006004600083815260200190815260200160002060009054906101000a900473ffffffffffffffffffffffffffffffffffffffff169050919050565b600033905090565b610cf68383836001611634565b505050565b600080610d07846115f7565b9050600073ffffffffffffffffffffffffffffffffffffffff168373ffffffffffffffffffffffffffffffffffffffff1614610d4957610d488184866117f9565b5b600073ffffffffffffffffffffffffffffffffffffffff168173ffffffffffffffffffffffffffffffffffffffff1614610dda57610d8b600085600080611634565b6001600360008373ffffffffffffffffffffffffffffffffffffffff1673ffffffffffffffffffffffffffffffffffffffff168152602001908152602001600020600082825403925050819055505b600073ffffffffffffffffffffffffffffffffffffffff168573ffffffffffffffffffffffffffffffffffffffff1614610e5d576001600360008773ffffffffffffffffffffffffffffffffffffffff1673ffffffffffffffffffffffffffffffffffffffff168152602001908152602001600020600082825401925050819055505b846002600086815260200190815260200160002060006101000a81548173ffffffffffffffffffffffffffffffffffffffff021916908373ffffffffffffffffffffffffffffffffffffffff160217905550838573ffffffffffffffffffffffffffffffffffffffff168273ffffffffffffffffffffffffffffffffffffffff167fddf252ad1be2c89b69c2b068fc378daa952ba7f163c4a11628f55a4df523b3ef60405160405180910390a4809150509392505050565b610f2f8282604051806020016040528060008152506118bd565b5050565b80600660008481526020019081526020016000209081610f5391906128a9565b507ff8e1a15aba9398e019f0b49df1a4fde98ee17ae345cb5f6b5e2c27f5033e8ce782604051610f839190611eac565b60405180910390a15050565b610f97610ce1565b73ffffffffffffffffffffffffffffffffffffffff16610fb56108f1565b73ffffffffffffffffffffffffffffffffffffffff161461101457610fd8610ce1565b6040517f118cdaa700000000000000000000000000000000000000000000000000000000815260040161100b9190612013565b60405180910390fd5b565b6000600760009054906101000a900473ffffffffffffffffffffffffffffffffffffffff16905081600760006101000a81548173ffffffffffffffffffffffffffffffffffffffff021916908373ffffffffffffffffffffffffffffffffffffffff1602179055508173ffffffffffffffffffffffffffffffffffffffff168173ffffffffffffffffffffffffffffffffffffffff167f8be0079c531659141344cd1fd0a4f28419497f9722a3daafe3b4186f6b6457e060405160405180910390a35050565b600073ffffffffffffffffffffffffffffffffffffffff168273ffffffffffffffffffffffffffffffffffffffff160361114d57816040517f5b08ba180000000000000000000000000000000000000000000000000000000081526004016111449190612013565b60405180910390fd5b80600560008573ffffffffffffffffffffffffffffffffffffffff1673ffffffffffffffffffffffffffffffffffffffff16815260200190815260200160002060008473ffffffffffffffffffffffffffffffffffffffff1673ffffffffffffffffffffffffffffffffffffffff16815260200190815260200160002060006101000a81548160ff0219169083151502179055508173ffffffffffffffffffffffffffffffffffffffff168373ffffffffffffffffffffffffffffffffffffffff167f17307eab39ab6107e8899845ad3d59bd9653f200f220920489ca2b5937696c318360405161123e9190611e78565b60405180910390a3505050565b60008373ffffffffffffffffffffffffffffffffffffffff163b11156113fc578273ffffffffffffffffffffffffffffffffffffffff1663150b7a0261128f610ce1565b8685856040518563ffffffff1660e01b81526004016112b194939291906129d0565b6020604051808303816000875af19250505080156112ed57506040513d601f19601f820116820180604052508101906112ea9190612a31565b60015b611371573d806000811461131d576040519150601f19603f3d011682016040523d82523d6000602084013e611322565b606091505b50600081510361136957836040517f64a0ae920000000000000000000000000000000000000000000000000000000081526004016113609190612013565b60405180910390fd5b805181602001fd5b63150b7a0260e01b7bffffffffffffffffffffffffffffffffffffffffffffffffffffffff1916817bffffffffffffffffffffffffffffffffffffffffffffffffffffffff1916146113fa57836040517f64a0ae920000000000000000000000000000000000000000000000000000000081526004016113f19190612013565b60405180910390fd5b505b50505050565b606061140d82610c1c565b50600060066000848152602001908152602001600020805461142e906124f3565b80601f016020809104026020016040519081016040528092919081815260200182805461145a906124f3565b80156114a75780601f1061147c576101008083540402835291602001916114a7565b820191906000526020600020905b81548152906001019060200180831161148a57829003601f168201915b5050505050905060006114b86118d9565b905060008151036114cd578192505050611510565b6000825111156115025780826040516020016114ea929190612a5e565b60405160208183030381529060405292505050611510565b61150b84611916565b925050505b919050565b60007f80ac58cd000000000000000000000000000000000000000000000000000000007bffffffffffffffffffffffffffffffffffffffffffffffffffffffff1916827bffffffffffffffffffffffffffffffffffffffffffffffffffffffff191614806115e057507f5b5e139f000000000000000000000000000000000000000000000000000000007bffffffffffffffffffffffffffffffffffffffffffffffffffffffff1916827bffffffffffffffffffffffffffffffffffffffffffffffffffffffff1916145b806115f057506115ef8261197f565b5b9050919050565b60006002600083815260200190815260200160002060009054906101000a900473ffffffffffffffffffffffffffffffffffffffff169050919050565b808061166d5750600073ffffffffffffffffffffffffffffffffffffffff168273ffffffffffffffffffffffffffffffffffffffff1614155b156117a157600061167d84610c1c565b9050600073ffffffffffffffffffffffffffffffffffffffff168373ffffffffffffffffffffffffffffffffffffffff16141580156116e857508273ffffffffffffffffffffffffffffffffffffffff168173ffffffffffffffffffffffffffffffffffffffff1614155b80156116fb57506116f98184610aa1565b155b1561173d57826040517fa9fbf51f0000000000000000000000000000000000000000000000000000000081526004016117349190612013565b60405180910390fd5b811561179f57838573ffffffffffffffffffffffffffffffffffffffff168273ffffffffffffffffffffffffffffffffffffffff167f8c5be1e5ebec7d5bd14f71427d1e84f3dd0314c0f7b2291e5b200ac8c7c3b92560405160405180910390a45b505b836004600085815260200190815260200160002060006101000a81548173ffffffffffffffffffffffffffffffffffffffff021916908373ffffffffffffffffffffffffffffffffffffffff16021790555050505050565b6118048383836119e9565b6118b857600073ffffffffffffffffffffffffffffffffffffffff168373ffffffffffffffffffffffffffffffffffffffff160361187957806040517f7e2732890000000000000000000000000000000000000000000000000000000081526004016118709190611eac565b60405180910390fd5b81816040517f177e802f0000000000000000000000000000000000000000000000000000000081526004016118af929190612a82565b60405180910390fd5b505050565b6118c78383611aaa565b6118d4600084848461124b565b505050565b60606040518060400160405280600781526020017f697066733a2f2f00000000000000000000000000000000000000000000000000815250905090565b606061192182610c1c565b50600061192c6118d9565b9050600081511161194c5760405180602001604052806000815250611977565b8061195684611ba3565b604051602001611967929190612a5e565b6040516020818303038152906040525b915050919050565b60007f01ffc9a7000000000000000000000000000000000000000000000000000000007bffffffffffffffffffffffffffffffffffffffffffffffffffffffff1916827bffffffffffffffffffffffffffffffffffffffffffffffffffffffff1916149050919050565b60008073ffffffffffffffffffffffffffffffffffffffff168373ffffffffffffffffffffffffffffffffffffffff1614158015611aa157508273ffffffffffffffffffffffffffffffffffffffff168473ffffffffffffffffffffffffffffffffffffffff161480611a625750611a618484610aa1565b5b80611aa057508273ffffffffffffffffffffffffffffffffffffffff16611a8883610ca4565b73ffffffffffffffffffffffffffffffffffffffff16145b5b90509392505050565b600073ffffffffffffffffffffffffffffffffffffffff168273ffffffffffffffffffffffffffffffffffffffff1603611b1c5760006040517f64a0ae92000000000000000000000000000000000000000000000000000000008152600401611b139190612013565b60405180910390fd5b6000611b2a83836000610cfb565b9050600073ffffffffffffffffffffffffffffffffffffffff168173ffffffffffffffffffffffffffffffffffffffff1614611b9e5760006040517f73c6ac6e000000000000000000000000000000000000000000000000000000008152600401611b959190612013565b60405180910390fd5b505050565b606060006001611bb284611c71565b01905060008167ffffffffffffffff811115611bd157611bd06120f7565b5b6040519080825280601f01601f191660200182016040528015611c035781602001600182028036833780820191505090505b509050600082602001820190505b600115611c66578080600190039150507f3031323334353637383961626364656600000000000000000000000000000000600a86061a8153600a8581611c5a57611c59612aab565b5b04945060008503611c11575b819350505050919050565b600080600090507a184f03e93ff9f4daa797ed6e38ed64bf6a1f0100000000000000008310611ccf577a184f03e93ff9f4daa797ed6e38ed64bf6a1f0100000000000000008381611cc557611cc4612aab565b5b0492506040810190505b6d04ee2d6d415b85acef81000000008310611d0c576d04ee2d6d415b85acef81000000008381611d0257611d01612aab565b5b0492506020810190505b662386f26fc100008310611d3b57662386f26fc100008381611d3157611d30612aab565b5b0492506010810190505b6305f5e1008310611d64576305f5e1008381611d5a57611d59612aab565b5b0492506008810190505b6127108310611d89576127108381611d7f57611d7e612aab565b5b0492506004810190505b60648310611dac5760648381611da257611da1612aab565b5b0492506002810190505b600a8310611dbb576001810190505b80915050919050565b6000604051905090565b600080fd5b600080fd5b60007fffffffff0000000000000000000000000000000000000000000000000000000082169050919050565b611e0d81611dd8565b8114611e1857600080fd5b50565b600081359050611e2a81611e04565b92915050565b600060208284031215611e4657611e45611dce565b5b6000611e5484828501611e1b565b91505092915050565b60008115159050919050565b611e7281611e5d565b82525050565b6000602082019050611e8d6000830184611e69565b92915050565b6000819050919050565b611ea681611e93565b82525050565b6000602082019050611ec16000830184611e9d565b92915050565b600081519050919050565b600082825260208201905092915050565b60005b83811015611f01578082015181840152602081019050611ee6565b60008484015250505050565b6000601f19601f8301169050919050565b6000611f2982611ec7565b611f338185611ed2565b9350611f43818560208601611ee3565b611f4c81611f0d565b840191505092915050565b60006020820190508181036000830152611f718184611f1e565b905092915050565b611f8281611e93565b8114611f8d57600080fd5b50565b600081359050611f9f81611f79565b92915050565b600060208284031215611fbb57611fba611dce565b5b6000611fc984828501611f90565b91505092915050565b600073ffffffffffffffffffffffffffffffffffffffff82169050919050565b6000611ffd82611fd2565b9050919050565b61200d81611ff2565b82525050565b60006020820190506120286000830184612004565b92915050565b61203781611ff2565b811461204257600080fd5b50565b6000813590506120548161202e565b92915050565b6000806040838503121561207157612070611dce565b5b600061207f85828601612045565b925050602061209085828601611f90565b9150509250929050565b6000806000606084860312156120b3576120b2611dce565b5b60006120c186828701612045565b93505060206120d286828701612045565b92505060406120e386828701611f90565b9150509250925092565b600080fd5b600080fd5b7f4e487b7100000000000000000000000000000000000000000000000000000000600052604160045260246000fd5b61212f82611f0d565b810181811067ffffffffffffffff8211171561214e5761214d6120f7565b5b80604052505050565b6000612161611dc4565b905061216d8282612126565b919050565b600067ffffffffffffffff82111561218d5761218c6120f7565b5b61219682611f0d565b9050602081019050919050565b82818337600083830152505050565b60006121c56121c084612172565b612157565b9050828152602081018484840111156121e1576121e06120f2565b5b6121ec8482856121a3565b509392505050565b600082601f830112612209576122086120ed565b5b81356122198482602086016121b2565b91505092915050565b6000806040838503121561223957612238611dce565b5b600061224785828601612045565b925050602083013567ffffffffffffffff81111561226857612267611dd3565b5b612274858286016121f4565b9150509250929050565b60006020828403121561229457612293611dce565b5b60006122a284828501612045565b91505092915050565b6000602082840312156122c1576122c0611dce565b5b600082013567ffffffffffffffff8111156122df576122de611dd3565b5b6122eb848285016121f4565b91505092915050565b6122fd81611e5d565b811461230857600080fd5b50565b60008135905061231a816122f4565b92915050565b6000806040838503121561233757612336611dce565b5b600061234585828601612045565b92505060206123568582860161230b565b9150509250929050565b600067ffffffffffffffff82111561237b5761237a6120f7565b5b61238482611f0d565b9050602081019050919050565b60006123a461239f84612360565b612157565b9050828152602081018484840111156123c0576123bf6120f2565b5b6123cb8482856121a3565b509392505050565b600082601f8301126123e8576123e76120ed565b5b81356123f8848260208601612391565b91505092915050565b6000806000806080858703121561241b5761241a611dce565b5b600061242987828801612045565b945050602061243a87828801612045565b935050604061244b87828801611f90565b925050606085013567ffffffffffffffff81111561246c5761246b611dd3565b5b612478878288016123d3565b91505092959194509250565b6000806040838503121561249b5761249a611dce565b5b60006124a985828601612045565b92505060206124ba85828601612045565b9150509250929050565b7f4e487b7100000000000000000000000000000000000000000000000000000000600052602260045260246000fd5b6000600282049050600182168061250b57607f821691505b60208210810361251e5761251d6124c4565b5b50919050565b60006060820190506125396000830186612004565b6125466020830185611e9d565b6125536040830184612004565b949350505050565b600081905092915050565b600061257182611ec7565b61257b818561255b565b935061258b818560208601611ee3565b80840191505092915050565b60006125a38284612566565b915081905092915050565b7f4e465420616c7265616479206d696e7465642100000000000000000000000000600082015250565b60006125e4601383611ed2565b91506125ef826125ae565b602082019050919050565b60006020820190508181036000830152612613816125d7565b9050919050565b7f4e65656420746f20706179207570210000000000000000000000000000000000600082015250565b6000612650600f83611ed2565b915061265b8261261a565b602082019050919050565b6000602082019050818103600083015261267f81612643565b9050919050565b7f4e487b7100000000000000000000000000000000000000000000000000000000600052601160045260246000fd5b60006126c082611e93565b91507fffffffffffffffffffffffffffffffffffffffffffffffffffffffffffffffff82036126f2576126f1612686565b5b600182019050919050565b60008190508160005260206000209050919050565b60006020601f8301049050919050565b600082821b905092915050565b60006008830261275f7fffffffffffffffffffffffffffffffffffffffffffffffffffffffffffffffff82612722565b6127698683612722565b95508019841693508086168417925050509392505050565b6000819050919050565b60006127a66127a161279c84611e93565b612781565b611e93565b9050919050565b6000819050919050565b6127c08361278b565b6127d46127cc826127ad565b84845461272f565b825550505050565b600090565b6127e96127dc565b6127f48184846127b7565b505050565b5b818110156128185761280d6000826127e1565b6001810190506127fa565b5050565b601f82111561285d5761282e816126fd565b61283784612712565b81016020851015612846578190505b61285a61285285612712565b8301826127f9565b50505b505050565b600082821c905092915050565b600061288060001984600802612862565b1980831691505092915050565b6000612899838361286f565b9150826002028217905092915050565b6128b282611ec7565b67ffffffffffffffff8111156128cb576128ca6120f7565b5b6128d582546124f3565b6128e082828561281c565b600060209050601f8311600181146129135760008415612901578287015190505b61290b858261288d565b865550612973565b601f198416612921866126fd565b60005b8281101561294957848901518255600182019150602085019450602081019050612924565b868310156129665784890151612962601f89168261286f565b8355505b6001600288020188555050505b505050505050565b600081519050919050565b600082825260208201905092915050565b60006129a28261297b565b6129ac8185612986565b93506129bc818560208601611ee3565b6129c581611f0d565b840191505092915050565b60006080820190506129e56000830187612004565b6129f26020830186612004565b6129ff6040830185611e9d565b8181036060830152612a118184612997565b905095945050505050565b600081519050612a2b81611e04565b92915050565b600060208284031215612a4757612a46611dce565b5b6000612a5584828501612a1c565b91505092915050565b6000612a6a8285612566565b9150612a768284612566565b91508190509392505050565b6000604082019050612a976000830185612004565b612aa46020830184611e9d565b9392505050565b7f4e487b7100000000000000000000000000000000000000000000000000000000600052601260045260246000fdfea264697066735822122077fa1a740de60cacff3ab14c1d42e1d6fcecfd4f42960325098877e24bfc89d064736f6c63430008180033",
  "linkReferences": {},
  "deployedLinkReferences": {}
}